{
  "_format": "hh-sol-artifact-1",
  "contractName": "Marketplace",
  "sourceName": "contracts/Marketplace.sol",
  "abi": [
    {
      "inputs": [
        {
          "internalType": "uint256",
          "name": "_feePercent",
          "type": "uint256"
        }
      ],
      "stateMutability": "nonpayable",
      "type": "constructor"
    },
    {
      "anonymous": false,
      "inputs": [
        {
          "indexed": false,
          "internalType": "uint256",
          "name": "itemId",
          "type": "uint256"
        },
        {
          "indexed": true,
          "internalType": "address",
          "name": "nft",
          "type": "address"
        },
        {
          "indexed": false,
          "internalType": "uint256",
          "name": "tokenId",
          "type": "uint256"
        },
        {
          "indexed": false,
          "internalType": "uint256",
          "name": "price",
          "type": "uint256"
        },
        {
          "indexed": true,
          "internalType": "address",
          "name": "seller",
          "type": "address"
        },
        {
          "indexed": true,
          "internalType": "address",
          "name": "buyer",
          "type": "address"
        },
        {
          "indexed": false,
          "internalType": "address",
          "name": "artist",
          "type": "address"
        },
        {
          "indexed": false,
          "internalType": "uint256",
          "name": "royalityFee",
          "type": "uint256"
        }
      ],
      "name": "Bought",
      "type": "event"
    },
    {
      "anonymous": false,
      "inputs": [
        {
          "indexed": false,
          "internalType": "uint256",
          "name": "itemId",
          "type": "uint256"
        },
        {
          "indexed": true,
          "internalType": "address",
          "name": "nft",
          "type": "address"
        },
        {
          "indexed": false,
          "internalType": "uint256",
          "name": "tokenId",
          "type": "uint256"
        },
        {
          "indexed": false,
          "internalType": "uint256",
          "name": "price",
          "type": "uint256"
        },
        {
          "indexed": true,
          "internalType": "address",
          "name": "seller",
          "type": "address"
        },
        {
          "indexed": true,
          "internalType": "address",
          "name": "artist",
          "type": "address"
        },
        {
          "indexed": false,
          "internalType": "uint256",
          "name": "royalityFee",
          "type": "uint256"
        }
      ],
      "name": "Offered",
      "type": "event"
    },
    {
      "inputs": [],
      "name": "feeAccount",
      "outputs": [
        {
          "internalType": "address payable",
          "name": "",
          "type": "address"
        }
      ],
      "stateMutability": "view",
      "type": "function"
    },
    {
      "inputs": [],
      "name": "feePercent",
      "outputs": [
        {
          "internalType": "uint256",
          "name": "",
          "type": "uint256"
        }
      ],
      "stateMutability": "view",
      "type": "function"
    },
    {
      "inputs": [
        {
          "internalType": "uint256",
          "name": "_itemId",
          "type": "uint256"
        }
      ],
      "name": "getTotalPrice",
      "outputs": [
        {
          "internalType": "uint256",
          "name": "",
          "type": "uint256"
        }
      ],
      "stateMutability": "view",
      "type": "function"
    },
    {
      "inputs": [],
      "name": "itemCount",
      "outputs": [
        {
          "internalType": "uint256",
          "name": "",
          "type": "uint256"
        }
      ],
      "stateMutability": "view",
      "type": "function"
    },
    {
      "inputs": [
        {
          "internalType": "uint256",
          "name": "",
          "type": "uint256"
        }
      ],
      "name": "items",
      "outputs": [
        {
          "internalType": "uint256",
          "name": "itemId",
          "type": "uint256"
        },
        {
          "internalType": "contract IERC721",
          "name": "nft",
          "type": "address"
        },
        {
          "internalType": "uint256",
          "name": "tokenId",
          "type": "uint256"
        },
        {
          "internalType": "uint256",
          "name": "price",
          "type": "uint256"
        },
        {
          "internalType": "address payable",
          "name": "seller",
          "type": "address"
        },
        {
          "internalType": "address payable",
          "name": "artist",
          "type": "address"
        },
        {
          "internalType": "uint256",
          "name": "royalityFee",
          "type": "uint256"
        },
        {
          "internalType": "bool",
          "name": "sold",
          "type": "bool"
        }
      ],
      "stateMutability": "view",
      "type": "function"
    },
    {
      "inputs": [
        {
          "internalType": "contract IERC721",
          "name": "_nft",
          "type": "address"
        },
        {
          "internalType": "uint256",
          "name": "_tokenId",
          "type": "uint256"
        },
        {
          "internalType": "uint256",
          "name": "_price",
          "type": "uint256"
        },
        {
          "internalType": "uint256",
          "name": "_royalityFee",
          "type": "uint256"
        }
      ],
      "name": "makeItem",
      "outputs": [],
      "stateMutability": "nonpayable",
      "type": "function"
    },
    {
      "inputs": [
        {
          "internalType": "uint256",
          "name": "_itemId",
          "type": "uint256"
        }
      ],
      "name": "purchaseItem",
      "outputs": [],
      "stateMutability": "payable",
      "type": "function"
    }
  ],
  "bytecode": "0x60c06040523480156200001157600080fd5b50604051620016ae380380620016ae83398181016040528101906200003791906200009c565b60016000819055503373ffffffffffffffffffffffffffffffffffffffff1660808173ffffffffffffffffffffffffffffffffffffffff1660601b815250508060a0818152505050620000ec565b6000815190506200009681620000d2565b92915050565b600060208284031215620000af57600080fd5b6000620000bf8482850162000085565b91505092915050565b6000819050919050565b620000dd81620000c8565b8114620000e957600080fd5b50565b60805160601c60a05161158b620001236000396000818161058c01526106690152600081816101be0152610c2f015261158b6000f3fe6080604052600436106100705760003560e01c80637fd6f15c1161004e5780637fd6f15c146100f4578063bfb231d21461011f578063ca7dd37514610163578063d38ea5bf146101a057610070565b806365e17c9d14610075578063696aae08146100a05780636bfb0d01146100c9575b600080fd5b34801561008157600080fd5b5061008a6101bc565b6040516100979190610f01565b60405180910390f35b3480156100ac57600080fd5b506100c760048036038101906100c29190610d11565b6101e0565b005b3480156100d557600080fd5b506100de610584565b6040516100eb9190611013565b60405180910390f35b34801561010057600080fd5b5061010961058a565b6040516101169190611013565b60405180910390f35b34801561012b57600080fd5b5061014660048036038101906101419190610d74565b6105ae565b60405161015a98979695949392919061102e565b60405180910390f35b34801561016f57600080fd5b5061018a60048036038101906101859190610d74565b610663565b6040516101979190611013565b60405180910390f35b6101ba60048036038101906101b59190610d74565b6106c6565b005b7f000000000000000000000000000000000000000000000000000000000000000081565b60026000541415610226576040517f08c379a000000000000000000000000000000000000000000000000000000000815260040161021d90610ff3565b60405180910390fd5b600260008190555060008211610271576040517f08c379a000000000000000000000000000000000000000000000000000000000815260040161026890610f73565b60405180910390fd5b60008110156102b5576040517f08c379a00000000000000000000000000000000000000000000000000000000081526004016102ac90610fd3565b60405180910390fd5b600160008154809291906102c89061133b565b91905055508373ffffffffffffffffffffffffffffffffffffffff166323b872dd3330866040518463ffffffff1660e01b815260040161030a93929190610f1c565b600060405180830381600087803b15801561032457600080fd5b505af1158015610338573d6000803e3d6000fd5b5050505060405180610100016040528060015481526020018573ffffffffffffffffffffffffffffffffffffffff1681526020018481526020018381526020013373ffffffffffffffffffffffffffffffffffffffff1681526020013373ffffffffffffffffffffffffffffffffffffffff168152602001828152602001600015158152506002600060015481526020019081526020016000206000820151816000015560208201518160010160006101000a81548173ffffffffffffffffffffffffffffffffffffffff021916908373ffffffffffffffffffffffffffffffffffffffff160217905550604082015181600201556060820151816003015560808201518160040160006101000a81548173ffffffffffffffffffffffffffffffffffffffff021916908373ffffffffffffffffffffffffffffffffffffffff16021790555060a08201518160050160006101000a81548173ffffffffffffffffffffffffffffffffffffffff021916908373ffffffffffffffffffffffffffffffffffffffff16021790555060c0820151816006015560e08201518160070160006101000a81548160ff0219169083151502179055509050503373ffffffffffffffffffffffffffffffffffffffff163373ffffffffffffffffffffffffffffffffffffffff168573ffffffffffffffffffffffffffffffffffffffff167f03b7487dd75c9a44820e6ae386686b88abfabaf56869cab723a3ad119a902b6a60015487878760405161056e94939291906110ff565b60405180910390a4600160008190555050505050565b60015481565b7f000000000000000000000000000000000000000000000000000000000000000081565b60026020528060005260406000206000915090508060000154908060010160009054906101000a900473ffffffffffffffffffffffffffffffffffffffff16908060020154908060030154908060040160009054906101000a900473ffffffffffffffffffffffffffffffffffffffff16908060050160009054906101000a900473ffffffffffffffffffffffffffffffffffffffff16908060060154908060070160009054906101000a900460ff16905088565b600060647f000000000000000000000000000000000000000000000000000000000000000060646106949190611160565b60026000858152602001908152602001600020600301546106b591906111e7565b6106bf91906111b6565b9050919050565b6002600054141561070c576040517f08c379a000000000000000000000000000000000000000000000000000000000815260040161070390610ff3565b60405180910390fd5b6002600081905550600061071f82610663565b9050600060026000848152602001908152602001600020905060008311801561074a57506001548311155b610789576040517f08c379a000000000000000000000000000000000000000000000000000000000815260040161078090610fb3565b60405180910390fd5b813410156107cc576040517f08c379a00000000000000000000000000000000000000000000000000000000081526004016107c390610f93565b60405180910390fd5b8060070160009054906101000a900460ff161561081e576040517f08c379a000000000000000000000000000000000000000000000000000000000815260040161081590610f53565b60405180910390fd5b600060648260060154836003015461083691906111e7565b61084091906111b6565b90508160050160009054906101000a900473ffffffffffffffffffffffffffffffffffffffff1673ffffffffffffffffffffffffffffffffffffffff163373ffffffffffffffffffffffffffffffffffffffff16146108a4576108a38482610b6d565b5b8160040160009054906101000a900473ffffffffffffffffffffffffffffffffffffffff1673ffffffffffffffffffffffffffffffffffffffff163373ffffffffffffffffffffffffffffffffffffffff16146109a65760008260040160009054906101000a900473ffffffffffffffffffffffffffffffffffffffff1673ffffffffffffffffffffffffffffffffffffffff168284600301546109489190611241565b60405161095490610eec565b60006040518083038185875af1925050503d8060008114610991576040519150601f19603f3d011682016040523d82523d6000602084013e610996565b606091505b50509050806109a457600080fd5b505b6109af84610c1e565b60018260070160006101000a81548160ff0219169083151502179055508160010160009054906101000a900473ffffffffffffffffffffffffffffffffffffffff1673ffffffffffffffffffffffffffffffffffffffff166342842e0e303385600201546040518463ffffffff1660e01b8152600401610a3193929190610f1c565b600060405180830381600087803b158015610a4b57600080fd5b505af1158015610a5f573d6000803e3d6000fd5b505050503373ffffffffffffffffffffffffffffffffffffffff168260040160009054906101000a900473ffffffffffffffffffffffffffffffffffffffff1673ffffffffffffffffffffffffffffffffffffffff168360010160009054906101000a900473ffffffffffffffffffffffffffffffffffffffff1673ffffffffffffffffffffffffffffffffffffffff167fd447a06110f7e9cb5a6f7bbb1227bb4a9cfcd569aeeed7e14700c763f363129c87866002015487600301548860050160009054906101000a900473ffffffffffffffffffffffffffffffffffffffff168960060154604051610b579594939291906110ac565b60405180910390a4505050600160008190555050565b60006002600084815260200190815260200160002060050160009054906101000a900473ffffffffffffffffffffffffffffffffffffffff1673ffffffffffffffffffffffffffffffffffffffff1682604051610bc990610eec565b60006040518083038185875af1925050503d8060008114610c06576040519150601f19603f3d011682016040523d82523d6000602084013e610c0b565b606091505b5050905080610c1957600080fd5b505050565b6000610c2982610663565b905060007f000000000000000000000000000000000000000000000000000000000000000073ffffffffffffffffffffffffffffffffffffffff16600260008581526020019081526020016000206003015483610c869190611241565b604051610c9290610eec565b60006040518083038185875af1925050503d8060008114610ccf576040519150601f19603f3d011682016040523d82523d6000602084013e610cd4565b606091505b5050905080610ce257600080fd5b505050565b600081359050610cf681611527565b92915050565b600081359050610d0b8161153e565b92915050565b60008060008060808587031215610d2757600080fd5b6000610d3587828801610ce7565b9450506020610d4687828801610cfc565b9350506040610d5787828801610cfc565b9250506060610d6887828801610cfc565b91505092959194509250565b600060208284031215610d8657600080fd5b6000610d9484828501610cfc565b91505092915050565b610da6816112e1565b82525050565b610db581611287565b82525050565b610dc481611275565b82525050565b610dd381611299565b82525050565b610de2816112f3565b82525050565b6000610df560118361114f565b9150610e00826113e2565b602082019050919050565b6000610e18601f8361114f565b9150610e238261140b565b602082019050919050565b6000610e3b60338361114f565b9150610e4682611434565b604082019050919050565b6000610e5e60128361114f565b9150610e6982611483565b602082019050919050565b6000610e81600083611144565b9150610e8c826114ac565b600082019050919050565b6000610ea460258361114f565b9150610eaf826114af565b604082019050919050565b6000610ec7601f8361114f565b9150610ed2826114fe565b602082019050919050565b610ee6816112d7565b82525050565b6000610ef782610e74565b9150819050919050565b6000602082019050610f166000830184610dac565b92915050565b6000606082019050610f316000830186610dbb565b610f3e6020830185610dbb565b610f4b6040830184610edd565b949350505050565b60006020820190508181036000830152610f6c81610de8565b9050919050565b60006020820190508181036000830152610f8c81610e0b565b9050919050565b60006020820190508181036000830152610fac81610e2e565b9050919050565b60006020820190508181036000830152610fcc81610e51565b9050919050565b60006020820190508181036000830152610fec81610e97565b9050919050565b6000602082019050818103600083015261100c81610eba565b9050919050565b60006020820190506110286000830184610edd565b92915050565b600061010082019050611044600083018b610edd565b611051602083018a610dd9565b61105e6040830189610edd565b61106b6060830188610edd565b6110786080830187610dac565b61108560a0830186610dac565b61109260c0830185610edd565b61109f60e0830184610dca565b9998505050505050505050565b600060a0820190506110c16000830188610edd565b6110ce6020830187610edd565b6110db6040830186610edd565b6110e86060830185610d9d565b6110f56080830184610edd565b9695505050505050565b60006080820190506111146000830187610edd565b6111216020830186610edd565b61112e6040830185610edd565b61113b6060830184610edd565b95945050505050565b600081905092915050565b600082825260208201905092915050565b600061116b826112d7565b9150611176836112d7565b9250827fffffffffffffffffffffffffffffffffffffffffffffffffffffffffffffffff038211156111ab576111aa611384565b5b828201905092915050565b60006111c1826112d7565b91506111cc836112d7565b9250826111dc576111db6113b3565b5b828204905092915050565b60006111f2826112d7565b91506111fd836112d7565b9250817fffffffffffffffffffffffffffffffffffffffffffffffffffffffffffffffff048311821515161561123657611235611384565b5b828202905092915050565b600061124c826112d7565b9150611257836112d7565b92508282101561126a57611269611384565b5b828203905092915050565b6000611280826112b7565b9050919050565b6000611292826112b7565b9050919050565b60008115159050919050565b60006112b082611275565b9050919050565b600073ffffffffffffffffffffffffffffffffffffffff82169050919050565b6000819050919050565b60006112ec82611317565b9050919050565b60006112fe82611305565b9050919050565b6000611310826112b7565b9050919050565b600061132282611329565b9050919050565b6000611334826112b7565b9050919050565b6000611346826112d7565b91507fffffffffffffffffffffffffffffffffffffffffffffffffffffffffffffffff82141561137957611378611384565b5b600182019050919050565b7f4e487b7100000000000000000000000000000000000000000000000000000000600052601160045260246000fd5b7f4e487b7100000000000000000000000000000000000000000000000000000000600052601260045260246000fd5b7f6974656d20616c726561647920736f6c64000000000000000000000000000000600082015250565b7f5072696365206d7573742062652067726561746572207468616e207a65726f00600082015250565b7f6e6f7420656e6f75676820657468657220746f20636f766572206974656d207060008201527f7269636520616e64206d61726b65742066656500000000000000000000000000602082015250565b7f6974656d20646f65736e27742065786973740000000000000000000000000000600082015250565b50565b7f526f79616c697479466565206d7573742062652067726561746572207468616e60008201527f207a65726f000000000000000000000000000000000000000000000000000000602082015250565b7f5265656e7472616e637947756172643a207265656e7472616e742063616c6c00600082015250565b611530816112a5565b811461153b57600080fd5b50565b611547816112d7565b811461155257600080fd5b5056fea264697066735822122006405bffa0e54e8f11182ec65d36bd52181a3bbb8a4cce2483d82696a79a49ab64736f6c63430008040033",
  "linkReferences": {},
  "deployedLinkReferences": {}
}